{
  "_format": "hh-sol-artifact-1",
  "contractName": "MyCoolNFT",
  "sourceName": "contracts/MyCoolNFT.sol",
  "abi": [
    {
      "inputs": [],
      "stateMutability": "nonpayable",
      "type": "constructor"
    },
    {
      "anonymous": false,
      "inputs": [
        {
          "indexed": true,
          "internalType": "address",
          "name": "owner",
          "type": "address"
        },
        {
          "indexed": true,
          "internalType": "address",
          "name": "approved",
          "type": "address"
        },
        {
          "indexed": true,
          "internalType": "uint256",
          "name": "tokenId",
          "type": "uint256"
        }
      ],
      "name": "Approval",
      "type": "event"
    },
    {
      "anonymous": false,
      "inputs": [
        {
          "indexed": true,
          "internalType": "address",
          "name": "owner",
          "type": "address"
        },
        {
          "indexed": true,
          "internalType": "address",
          "name": "operator",
          "type": "address"
        },
        {
          "indexed": false,
          "internalType": "bool",
          "name": "approved",
          "type": "bool"
        }
      ],
      "name": "ApprovalForAll",
      "type": "event"
    },
    {
      "anonymous": false,
      "inputs": [
        {
          "indexed": true,
          "internalType": "address",
          "name": "from",
          "type": "address"
        },
        {
          "indexed": true,
          "internalType": "address",
          "name": "to",
          "type": "address"
        },
        {
          "indexed": true,
          "internalType": "uint256",
          "name": "tokenId",
          "type": "uint256"
        }
      ],
      "name": "Transfer",
      "type": "event"
    },
    {
      "inputs": [
        {
          "internalType": "address",
          "name": "to",
          "type": "address"
        },
        {
          "internalType": "uint256",
          "name": "tokenId",
          "type": "uint256"
        }
      ],
      "name": "approve",
      "outputs": [],
      "stateMutability": "nonpayable",
      "type": "function"
    },
    {
      "inputs": [
        {
          "internalType": "address",
          "name": "owner",
          "type": "address"
        }
      ],
      "name": "balanceOf",
      "outputs": [
        {
          "internalType": "uint256",
          "name": "",
          "type": "uint256"
        }
      ],
      "stateMutability": "view",
      "type": "function"
    },
    {
      "inputs": [
        {
          "internalType": "uint256",
          "name": "tokenId",
          "type": "uint256"
        }
      ],
      "name": "getApproved",
      "outputs": [
        {
          "internalType": "address",
          "name": "",
          "type": "address"
        }
      ],
      "stateMutability": "view",
      "type": "function"
    },
    {
      "inputs": [
        {
          "internalType": "address",
          "name": "owner",
          "type": "address"
        },
        {
          "internalType": "address",
          "name": "operator",
          "type": "address"
        }
      ],
      "name": "isApprovedForAll",
      "outputs": [
        {
          "internalType": "bool",
          "name": "",
          "type": "bool"
        }
      ],
      "stateMutability": "view",
      "type": "function"
    },
    {
      "inputs": [],
      "name": "makeCoolNFT",
      "outputs": [],
      "stateMutability": "nonpayable",
      "type": "function"
    },
    {
      "inputs": [],
      "name": "name",
      "outputs": [
        {
          "internalType": "string",
          "name": "",
          "type": "string"
        }
      ],
      "stateMutability": "view",
      "type": "function"
    },
    {
      "inputs": [
        {
          "internalType": "uint256",
          "name": "tokenId",
          "type": "uint256"
        }
      ],
      "name": "ownerOf",
      "outputs": [
        {
          "internalType": "address",
          "name": "",
          "type": "address"
        }
      ],
      "stateMutability": "view",
      "type": "function"
    },
    {
      "inputs": [
        {
          "internalType": "uint256",
          "name": "tokenId",
          "type": "uint256"
        }
      ],
      "name": "pickRandomFirstWord",
      "outputs": [
        {
          "internalType": "string",
          "name": "",
          "type": "string"
        }
      ],
      "stateMutability": "view",
      "type": "function"
    },
    {
      "inputs": [
        {
          "internalType": "uint256",
          "name": "tokenId",
          "type": "uint256"
        }
      ],
      "name": "pickRandomSecondWord",
      "outputs": [
        {
          "internalType": "string",
          "name": "",
          "type": "string"
        }
      ],
      "stateMutability": "view",
      "type": "function"
    },
    {
      "inputs": [
        {
          "internalType": "uint256",
          "name": "tokenId",
          "type": "uint256"
        }
      ],
      "name": "pickRandomThirdWord",
      "outputs": [
        {
          "internalType": "string",
          "name": "",
          "type": "string"
        }
      ],
      "stateMutability": "view",
      "type": "function"
    },
    {
      "inputs": [
        {
          "internalType": "address",
          "name": "from",
          "type": "address"
        },
        {
          "internalType": "address",
          "name": "to",
          "type": "address"
        },
        {
          "internalType": "uint256",
          "name": "tokenId",
          "type": "uint256"
        }
      ],
      "name": "safeTransferFrom",
      "outputs": [],
      "stateMutability": "nonpayable",
      "type": "function"
    },
    {
      "inputs": [
        {
          "internalType": "address",
          "name": "from",
          "type": "address"
        },
        {
          "internalType": "address",
          "name": "to",
          "type": "address"
        },
        {
          "internalType": "uint256",
          "name": "tokenId",
          "type": "uint256"
        },
        {
          "internalType": "bytes",
          "name": "_data",
          "type": "bytes"
        }
      ],
      "name": "safeTransferFrom",
      "outputs": [],
      "stateMutability": "nonpayable",
      "type": "function"
    },
    {
      "inputs": [
        {
          "internalType": "address",
          "name": "operator",
          "type": "address"
        },
        {
          "internalType": "bool",
          "name": "approved",
          "type": "bool"
        }
      ],
      "name": "setApprovalForAll",
      "outputs": [],
      "stateMutability": "nonpayable",
      "type": "function"
    },
    {
      "inputs": [
        {
          "internalType": "bytes4",
          "name": "interfaceId",
          "type": "bytes4"
        }
      ],
      "name": "supportsInterface",
      "outputs": [
        {
          "internalType": "bool",
          "name": "",
          "type": "bool"
        }
      ],
      "stateMutability": "view",
      "type": "function"
    },
    {
      "inputs": [],
      "name": "symbol",
      "outputs": [
        {
          "internalType": "string",
          "name": "",
          "type": "string"
        }
      ],
      "stateMutability": "view",
      "type": "function"
    },
    {
      "inputs": [
        {
          "internalType": "uint256",
          "name": "tokenId",
          "type": "uint256"
        }
      ],
      "name": "tokenURI",
      "outputs": [
        {
          "internalType": "string",
          "name": "",
          "type": "string"
        }
      ],
      "stateMutability": "view",
      "type": "function"
    },
    {
      "inputs": [
        {
          "internalType": "address",
          "name": "from",
          "type": "address"
        },
        {
          "internalType": "address",
          "name": "to",
          "type": "address"
        },
        {
          "internalType": "uint256",
          "name": "tokenId",
          "type": "uint256"
        }
      ],
      "name": "transferFrom",
      "outputs": [],
      "stateMutability": "nonpayable",
      "type": "function"
    }
  ],
  "bytecode": "0x608060405260405180610160016040528061012f81526020016200466f61012f9139600890805190602001906200003892919062000a6c565b50604051806101c001604052806040518060400160405280600781526020017f526f6e616c646f0000000000000000000000000000000000000000000000000081525081526020016040518060400160405280600581526020017f4d6573736900000000000000000000000000000000000000000000000000000081525081526020016040518060400160405280600681526020017f4e65796d6172000000000000000000000000000000000000000000000000000081525081526020016040518060400160405280600781526020017f42656e7a656d610000000000000000000000000000000000000000000000000081525081526020016040518060400160405280600681526020017f53756172657a000000000000000000000000000000000000000000000000000081525081526020016040518060400160405280600881526020017f4465427275796e6500000000000000000000000000000000000000000000000081525081526020016040518060400160405280600681526020017f48617a617264000000000000000000000000000000000000000000000000000081525081526020016040518060400160405280600981526020017f4665726e616e646573000000000000000000000000000000000000000000000081525081526020016040518060400160405280600581526020017f4b616e746500000000000000000000000000000000000000000000000000000081525081526020016040518060400160405280600581526020017f484d736f6e00000000000000000000000000000000000000000000000000000081525081526020016040518060400160405280600881526020017f436f7572746f697300000000000000000000000000000000000000000000000081525081526020016040518060400160405280600a81526020017f417562616d6579616e670000000000000000000000000000000000000000000081525081526020016040518060400160405280600681526020017f506172656a6f000000000000000000000000000000000000000000000000000081525081526020016040518060400160405280600581526020017f46656c6978000000000000000000000000000000000000000000000000000000815250815250600990600e6200038f92919062000afd565b506040518061014001604052806040518060400160405280600481526020017f476f61740000000000000000000000000000000000000000000000000000000081525081526020016040518060400160405280600581526020017f446976657200000000000000000000000000000000000000000000000000000081525081526020016040518060400160405280600881526020017f536b696c6c66756c00000000000000000000000000000000000000000000000081525081526020016040518060400160405280600781526020017f506c617966756c0000000000000000000000000000000000000000000000000081525081526020016040518060400160405280600781526020017f536572696f75730000000000000000000000000000000000000000000000000081525081526020016040518060400160405280600781526020017f417765736f6d650000000000000000000000000000000000000000000000000081525081526020016040518060400160405280600481526020017f54616e6b0000000000000000000000000000000000000000000000000000000081525081526020016040518060400160405280600581526020017f426561737400000000000000000000000000000000000000000000000000000081525081526020016040518060400160405280600881526020017f477265617465737400000000000000000000000000000000000000000000000081525081526020016040518060400160405280600681526020017f57696e6e65720000000000000000000000000000000000000000000000000000815250815250600a90600a620005fa92919062000b64565b506040518061016001604052806040518060400160405280600781526020017f537472696b65720000000000000000000000000000000000000000000000000081525081526020016040518060400160405280600681526020017f476f616c6965000000000000000000000000000000000000000000000000000081525081526020016040518060400160405280600a81526020017f4d69646669656c6465720000000000000000000000000000000000000000000081525081526020016040518060400160405280600681526020017f57696e676572000000000000000000000000000000000000000000000000000081525081526020016040518060400160405280600a81526020017f43656e7465724261636b0000000000000000000000000000000000000000000081525081526020016040518060400160405280600881526020017f57696e674261636b00000000000000000000000000000000000000000000000081525081526020016040518060400160405280600881526020017f4c6566744261636b00000000000000000000000000000000000000000000000081525081526020016040518060400160405280600981526020017f52696768744261636b000000000000000000000000000000000000000000000081525081526020016040518060400160405280600681526020017f4465664d6964000000000000000000000000000000000000000000000000000081525081526020016040518060400160405280600c81526020017f41747461636b696e674d6964000000000000000000000000000000000000000081525081526020016040518060400160405280600981526020017f46616c73654e696e650000000000000000000000000000000000000000000000815250815250600b90600b620008a092919062000bcb565b50348015620008ae57600080fd5b506040518060400160405280600b81526020017f466f6f7442616c6c4e46540000000000000000000000000000000000000000008152506040518060400160405280600681526020017f536f63636572000000000000000000000000000000000000000000000000000081525081600090805190602001906200093392919062000a6c565b5080600190805190602001906200094c92919062000a6c565b5050506200099a6040518060400160405280601e81526020017f54686973206973206d79204e465420636f6e74726163742e20636f6f6c210000815250620009a060201b620010661760201c565b62000dec565b62000a4081604051602401620009b7919062000d00565b6040516020818303038152906040527f41304fac000000000000000000000000000000000000000000000000000000007bffffffffffffffffffffffffffffffffffffffffffffffffffffffff19166020820180517bffffffffffffffffffffffffffffffffffffffffffffffffffffffff838183161783525050505062000a4360201b60201c565b50565b60008151905060006a636f6e736f6c652e6c6f679050602083016000808483855afa5050505050565b82805462000a7a9062000d76565b90600052602060002090601f01602090048101928262000a9e576000855562000aea565b82601f1062000ab957805160ff191683800117855562000aea565b8280016001018555821562000aea579182015b8281111562000ae957825182559160200191906001019062000acc565b5b50905062000af9919062000c32565b5090565b82805482825590600052602060002090810192821562000b51579160200282015b8281111562000b5057825182908051906020019062000b3f92919062000a6c565b509160200191906001019062000b1e565b5b50905062000b60919062000c51565b5090565b82805482825590600052602060002090810192821562000bb8579160200282015b8281111562000bb757825182908051906020019062000ba692919062000a6c565b509160200191906001019062000b85565b5b50905062000bc7919062000c51565b5090565b82805482825590600052602060002090810192821562000c1f579160200282015b8281111562000c1e57825182908051906020019062000c0d92919062000a6c565b509160200191906001019062000bec565b5b50905062000c2e919062000c51565b5090565b5b8082111562000c4d57600081600090555060010162000c33565b5090565b5b8082111562000c75576000818162000c6b919062000c79565b5060010162000c52565b5090565b50805462000c879062000d76565b6000825580601f1062000c9b575062000cbc565b601f01602090049060005260206000209081019062000cbb919062000c32565b5b50565b600062000ccc8262000d24565b62000cd8818562000d2f565b935062000cea81856020860162000d40565b62000cf58162000ddb565b840191505092915050565b6000602082019050818103600083015262000d1c818462000cbf565b905092915050565b600081519050919050565b600082825260208201905092915050565b60005b8381101562000d6057808201518184015260208101905062000d43565b8381111562000d70576000848401525b50505050565b6000600282049050600182168062000d8f57607f821691505b6020821081141562000da65762000da562000dac565b5b50919050565b7f4e487b7100000000000000000000000000000000000000000000000000000000600052602260045260246000fd5b6000601f19601f8301169050919050565b6138738062000dfc6000396000f3fe608060405234801561001057600080fd5b506004361061010b5760003560e01c806370a08231116100a2578063b88d4fde11610071578063b88d4fde146102dc578063c575757a146102f8578063c87b56dd14610328578063d129e58314610358578063e985e9c5146103625761010b565b806370a082311461024257806395d89b4114610272578063a22cb46514610290578063b187301f146102ac5761010b565b806323b872dd116100de57806323b872dd146101aa5780632de38d68146101c657806342842e0e146101f65780636352211e146102125761010b565b806301ffc9a71461011057806306fdde0314610140578063081812fc1461015e578063095ea7b31461018e575b600080fd5b61012a600480360381019061012591906123f3565b610392565b6040516101379190612aee565b60405180910390f35b610148610474565b6040516101559190612b09565b60405180910390f35b61017860048036038101906101739190612445565b610506565b6040516101859190612a87565b60405180910390f35b6101a860048036038101906101a391906123b7565b61058b565b005b6101c460048036038101906101bf91906122b1565b6106a3565b005b6101e060048036038101906101db9190612445565b610703565b6040516101ed9190612b09565b60405180910390f35b610210600480360381019061020b91906122b1565b610821565b005b61022c60048036038101906102279190612445565b610841565b6040516102399190612a87565b60405180910390f35b61025c6004803603810190610257919061224c565b6108f3565b6040516102699190612d2b565b60405180910390f35b61027a6109ab565b6040516102879190612b09565b60405180910390f35b6102aa60048036038101906102a5919061237b565b610a3d565b005b6102c660048036038101906102c19190612445565b610a53565b6040516102d39190612b09565b60405180910390f35b6102f660048036038101906102f19190612300565b610b71565b005b610312600480360381019061030d9190612445565b610bd3565b60405161031f9190612b09565b60405180910390f35b610342600480360381019061033d9190612445565b610cf1565b60405161034f9190612b09565b60405180910390f35b610360610e43565b005b61037c60048036038101906103779190612275565b610fd2565b6040516103899190612aee565b60405180910390f35b60007f80ac58cd000000000000000000000000000000000000000000000000000000007bffffffffffffffffffffffffffffffffffffffffffffffffffffffff1916827bffffffffffffffffffffffffffffffffffffffffffffffffffffffff1916148061045d57507f5b5e139f000000000000000000000000000000000000000000000000000000007bffffffffffffffffffffffffffffffffffffffffffffffffffffffff1916827bffffffffffffffffffffffffffffffffffffffffffffffffffffffff1916145b8061046d575061046c826110ff565b5b9050919050565b60606000805461048390612fbf565b80601f01602080910402602001604051908101604052809291908181526020018280546104af90612fbf565b80156104fc5780601f106104d1576101008083540402835291602001916104fc565b820191906000526020600020905b8154815290600101906020018083116104df57829003601f168201915b5050505050905090565b600061051182611169565b610550576040517f08c379a000000000000000000000000000000000000000000000000000000000815260040161054790612cab565b60405180910390fd5b6004600083815260200190815260200160002060009054906101000a900473ffffffffffffffffffffffffffffffffffffffff169050919050565b600061059682610841565b90508073ffffffffffffffffffffffffffffffffffffffff168373ffffffffffffffffffffffffffffffffffffffff161415610607576040517f08c379a00000000000000000000000000000000000000000000000000000000081526004016105fe90612ceb565b60405180910390fd5b8073ffffffffffffffffffffffffffffffffffffffff166106266111d5565b73ffffffffffffffffffffffffffffffffffffffff16148061065557506106548161064f6111d5565b610fd2565b5b610694576040517f08c379a000000000000000000000000000000000000000000000000000000000815260040161068b90612beb565b60405180910390fd5b61069e83836111dd565b505050565b6106b46106ae6111d5565b82611296565b6106f3576040517f08c379a00000000000000000000000000000000000000000000000000000000081526004016106ea90612d0b565b60405180910390fd5b6106fe838383611374565b505050565b60606000610737610713846115db565b6040516020016107239190612a43565b604051602081830303815290604052611788565b90506009805490508161074a919061306b565b905060098181548110610786577f4e487b7100000000000000000000000000000000000000000000000000000000600052603260045260246000fd5b90600052602060002001805461079b90612fbf565b80601f01602080910402602001604051908101604052809291908181526020018280546107c790612fbf565b80156108145780601f106107e957610100808354040283529160200191610814565b820191906000526020600020905b8154815290600101906020018083116107f757829003601f168201915b5050505050915050919050565b61083c83838360405180602001604052806000815250610b71565b505050565b6000806002600084815260200190815260200160002060009054906101000a900473ffffffffffffffffffffffffffffffffffffffff169050600073ffffffffffffffffffffffffffffffffffffffff168173ffffffffffffffffffffffffffffffffffffffff1614156108ea576040517f08c379a00000000000000000000000000000000000000000000000000000000081526004016108e190612c2b565b60405180910390fd5b80915050919050565b60008073ffffffffffffffffffffffffffffffffffffffff168273ffffffffffffffffffffffffffffffffffffffff161415610964576040517f08c379a000000000000000000000000000000000000000000000000000000000815260040161095b90612c0b565b60405180910390fd5b600360008373ffffffffffffffffffffffffffffffffffffffff1673ffffffffffffffffffffffffffffffffffffffff168152602001908152602001600020549050919050565b6060600180546109ba90612fbf565b80601f01602080910402602001604051908101604052809291908181526020018280546109e690612fbf565b8015610a335780601f10610a0857610100808354040283529160200191610a33565b820191906000526020600020905b815481529060010190602001808311610a1657829003601f168201915b5050505050905090565b610a4f610a486111d5565b83836117bb565b5050565b60606000610a87610a63846115db565b604051602001610a7391906129dc565b604051602081830303815290604052611788565b9050600a8054905081610a9a919061306b565b9050600a8181548110610ad6577f4e487b7100000000000000000000000000000000000000000000000000000000600052603260045260246000fd5b906000526020600020018054610aeb90612fbf565b80601f0160208091040260200160405190810160405280929190818152602001828054610b1790612fbf565b8015610b645780601f10610b3957610100808354040283529160200191610b64565b820191906000526020600020905b815481529060010190602001808311610b4757829003601f168201915b5050505050915050919050565b610b82610b7c6111d5565b83611296565b610bc1576040517f08c379a0000000000000000000000000000000000000000000000000000000008152600401610bb890612d0b565b60405180910390fd5b610bcd84848484611928565b50505050565b60606000610c07610be3846115db565b604051602001610bf391906129ba565b604051602081830303815290604052611788565b9050600b8054905081610c1a919061306b565b9050600b8181548110610c56577f4e487b7100000000000000000000000000000000000000000000000000000000600052603260045260246000fd5b906000526020600020018054610c6b90612fbf565b80601f0160208091040260200160405190810160405280929190818152602001828054610c9790612fbf565b8015610ce45780601f10610cb957610100808354040283529160200191610ce4565b820191906000526020600020905b815481529060010190602001808311610cc757829003601f168201915b5050505050915050919050565b6060610cfc82611169565b610d3b576040517f08c379a0000000000000000000000000000000000000000000000000000000008152600401610d3290612c8b565b60405180910390fd5b6000600660008481526020019081526020016000208054610d5b90612fbf565b80601f0160208091040260200160405190810160405280929190818152602001828054610d8790612fbf565b8015610dd45780601f10610da957610100808354040283529160200191610dd4565b820191906000526020600020905b815481529060010190602001808311610db757829003601f168201915b505050505090506000610de5611984565b9050600081511415610dfb578192505050610e3e565b600082511115610e30578082604051602001610e1892919061291c565b60405160208183030381529060405292505050610e3e565b610e398461199b565b925050505b919050565b6000610e4f6007611a42565b90506000610e5c82610703565b90506000610e6983610a53565b90506000610e7684610bd3565b90506000838383604051602001610e8f93929190612940565b604051602081830303815290604052905060006008858585604051602001610eba9493929190612971565b60405160208183030381529060405290506000610eff83610eda84611a50565b604051602001610eeb9291906129fe565b604051602081830303815290604052611a50565b9050600081604051602001610f149190612a65565b6040516020818303038152906040529050610f636040518060400160405280601581526020017f0a2d2d2d2d2d2d2d2d2d2d2d2d2d2d2d2d2d2d2d2d0000000000000000000000815250611066565b610f6c81611066565b610faa6040518060400160405280601581526020017f2d2d2d2d2d2d2d2d2d2d2d2d2d2d2d2d2d2d2d2d0a0000000000000000000000815250611066565b610fb43389611c0e565b610fbe8882611c2c565b610fc86007611ca0565b5050505050505050565b6000600560008473ffffffffffffffffffffffffffffffffffffffff1673ffffffffffffffffffffffffffffffffffffffff16815260200190815260200160002060008373ffffffffffffffffffffffffffffffffffffffff1673ffffffffffffffffffffffffffffffffffffffff16815260200190815260200160002060009054906101000a900460ff16905092915050565b6110fc8160405160240161107a9190612b09565b6040516020818303038152906040527f41304fac000000000000000000000000000000000000000000000000000000007bffffffffffffffffffffffffffffffffffffffffffffffffffffffff19166020820180517bffffffffffffffffffffffffffffffffffffffffffffffffffffffff8381831617835250505050611cb6565b50565b60007f01ffc9a7000000000000000000000000000000000000000000000000000000007bffffffffffffffffffffffffffffffffffffffffffffffffffffffff1916827bffffffffffffffffffffffffffffffffffffffffffffffffffffffff1916149050919050565b60008073ffffffffffffffffffffffffffffffffffffffff166002600084815260200190815260200160002060009054906101000a900473ffffffffffffffffffffffffffffffffffffffff1673ffffffffffffffffffffffffffffffffffffffff1614159050919050565b600033905090565b816004600083815260200190815260200160002060006101000a81548173ffffffffffffffffffffffffffffffffffffffff021916908373ffffffffffffffffffffffffffffffffffffffff160217905550808273ffffffffffffffffffffffffffffffffffffffff1661125083610841565b73ffffffffffffffffffffffffffffffffffffffff167f8c5be1e5ebec7d5bd14f71427d1e84f3dd0314c0f7b2291e5b200ac8c7c3b92560405160405180910390a45050565b60006112a182611169565b6112e0576040517f08c379a00000000000000000000000000000000000000000000000000000000081526004016112d790612bcb565b60405180910390fd5b60006112eb83610841565b90508073ffffffffffffffffffffffffffffffffffffffff168473ffffffffffffffffffffffffffffffffffffffff16148061132d575061132c8185610fd2565b5b8061136b57508373ffffffffffffffffffffffffffffffffffffffff1661135384610506565b73ffffffffffffffffffffffffffffffffffffffff16145b91505092915050565b8273ffffffffffffffffffffffffffffffffffffffff1661139482610841565b73ffffffffffffffffffffffffffffffffffffffff16146113ea576040517f08c379a00000000000000000000000000000000000000000000000000000000081526004016113e190612b4b565b60405180910390fd5b600073ffffffffffffffffffffffffffffffffffffffff168273ffffffffffffffffffffffffffffffffffffffff16141561145a576040517f08c379a000000000000000000000000000000000000000000000000000000000815260040161145190612b8b565b60405180910390fd5b611465838383611cdf565b6114706000826111dd565b6001600360008573ffffffffffffffffffffffffffffffffffffffff1673ffffffffffffffffffffffffffffffffffffffff16815260200190815260200160002060008282546114c09190612ed5565b925050819055506001600360008473ffffffffffffffffffffffffffffffffffffffff1673ffffffffffffffffffffffffffffffffffffffff16815260200190815260200160002060008282546115179190612df4565b92505081905550816002600083815260200190815260200160002060006101000a81548173ffffffffffffffffffffffffffffffffffffffff021916908373ffffffffffffffffffffffffffffffffffffffff160217905550808273ffffffffffffffffffffffffffffffffffffffff168473ffffffffffffffffffffffffffffffffffffffff167fddf252ad1be2c89b69c2b068fc378daa952ba7f163c4a11628f55a4df523b3ef60405160405180910390a46115d6838383611ce4565b505050565b60606000821415611623576040518060400160405280600181526020017f30000000000000000000000000000000000000000000000000000000000000008152509050611783565b600082905060005b6000821461165557808061163e90613022565b915050600a8261164e9190612e4a565b915061162b565b60008167ffffffffffffffff811115611697577f4e487b7100000000000000000000000000000000000000000000000000000000600052604160045260246000fd5b6040519080825280601f01601f1916602001820160405280156116c95781602001600182028036833780820191505090505b5090505b6000851461177c576001826116e29190612ed5565b9150600a856116f1919061306b565b60306116fd9190612df4565b60f81b818381518110611739577f4e487b7100000000000000000000000000000000000000000000000000000000600052603260045260246000fd5b60200101907effffffffffffffffffffffffffffffffffffffffffffffffffffffffffffff1916908160001a905350600a856117759190612e4a565b94506116cd565b8093505050505b919050565b60008160405160200161179b9190612905565b6040516020818303038152906040528051906020012060001c9050919050565b8173ffffffffffffffffffffffffffffffffffffffff168373ffffffffffffffffffffffffffffffffffffffff16141561182a576040517f08c379a000000000000000000000000000000000000000000000000000000000815260040161182190612bab565b60405180910390fd5b80600560008573ffffffffffffffffffffffffffffffffffffffff1673ffffffffffffffffffffffffffffffffffffffff16815260200190815260200160002060008473ffffffffffffffffffffffffffffffffffffffff1673ffffffffffffffffffffffffffffffffffffffff16815260200190815260200160002060006101000a81548160ff0219169083151502179055508173ffffffffffffffffffffffffffffffffffffffff168373ffffffffffffffffffffffffffffffffffffffff167f17307eab39ab6107e8899845ad3d59bd9653f200f220920489ca2b5937696c318360405161191b9190612aee565b60405180910390a3505050565b611933848484611374565b61193f84848484611ce9565b61197e576040517f08c379a000000000000000000000000000000000000000000000000000000000815260040161197590612b2b565b60405180910390fd5b50505050565b606060405180602001604052806000815250905090565b60606119a682611169565b6119e5576040517f08c379a00000000000000000000000000000000000000000000000000000000081526004016119dc90612ccb565b60405180910390fd5b60006119ef611984565b90506000815111611a0f5760405180602001604052806000815250611a3a565b80611a19846115db565b604051602001611a2a92919061291c565b6040516020818303038152906040525b915050919050565b600081600001549050919050565b60606000825190506000811415611a795760405180602001604052806000815250915050611c09565b60006003600283611a8a9190612df4565b611a949190612e4a565b6004611aa09190612e7b565b90506000602082611ab19190612df4565b67ffffffffffffffff811115611af0577f4e487b7100000000000000000000000000000000000000000000000000000000600052604160045260246000fd5b6040519080825280601f01601f191660200182016040528015611b225781602001600182028036833780820191505090505b50905060006040518060600160405280604081526020016137fe604091399050600181016020830160005b86811015611bc65760038101905062ffffff818a015116603f8160121c168401518060081b905060ff603f83600c1c1686015116810190508060081b905060ff603f8360061c1686015116810190508060081b905060ff603f831686015116810190508060e01b90508084526004840193505050611b4d565b506003860660018114611be05760028114611bf057611bfb565b613d3d60f01b6002830352611bfb565b603d60f81b60018303525b508484525050819450505050505b919050565b611c28828260405180602001604052806000815250611e80565b5050565b611c3582611169565b611c74576040517f08c379a0000000000000000000000000000000000000000000000000000000008152600401611c6b90612c4b565b60405180910390fd5b80600660008481526020019081526020016000209080519060200190611c9b9291906120d8565b505050565b6001816000016000828254019250508190555050565b60008151905060006a636f6e736f6c652e6c6f679050602083016000808483855afa5050505050565b505050565b505050565b6000611d0a8473ffffffffffffffffffffffffffffffffffffffff16611edb565b15611e73578373ffffffffffffffffffffffffffffffffffffffff1663150b7a02611d336111d5565b8786866040518563ffffffff1660e01b8152600401611d559493929190612aa2565b602060405180830381600087803b158015611d6f57600080fd5b505af1925050508015611da057506040513d601f19601f82011682018060405250810190611d9d919061241c565b60015b611e23573d8060008114611dd0576040519150601f19603f3d011682016040523d82523d6000602084013e611dd5565b606091505b50600081511415611e1b576040517f08c379a0000000000000000000000000000000000000000000000000000000008152600401611e1290612b2b565b60405180910390fd5b805181602001fd5b63150b7a0260e01b7bffffffffffffffffffffffffffffffffffffffffffffffffffffffff1916817bffffffffffffffffffffffffffffffffffffffffffffffffffffffff191614915050611e78565b600190505b949350505050565b611e8a8383611efe565b611e976000848484611ce9565b611ed6576040517f08c379a0000000000000000000000000000000000000000000000000000000008152600401611ecd90612b2b565b60405180910390fd5b505050565b6000808273ffffffffffffffffffffffffffffffffffffffff163b119050919050565b600073ffffffffffffffffffffffffffffffffffffffff168273ffffffffffffffffffffffffffffffffffffffff161415611f6e576040517f08c379a0000000000000000000000000000000000000000000000000000000008152600401611f6590612c6b565b60405180910390fd5b611f7781611169565b15611fb7576040517f08c379a0000000000000000000000000000000000000000000000000000000008152600401611fae90612b6b565b60405180910390fd5b611fc360008383611cdf565b6001600360008473ffffffffffffffffffffffffffffffffffffffff1673ffffffffffffffffffffffffffffffffffffffff16815260200190815260200160002060008282546120139190612df4565b92505081905550816002600083815260200190815260200160002060006101000a81548173ffffffffffffffffffffffffffffffffffffffff021916908373ffffffffffffffffffffffffffffffffffffffff160217905550808273ffffffffffffffffffffffffffffffffffffffff16600073ffffffffffffffffffffffffffffffffffffffff167fddf252ad1be2c89b69c2b068fc378daa952ba7f163c4a11628f55a4df523b3ef60405160405180910390a46120d460008383611ce4565b5050565b8280546120e490612fbf565b90600052602060002090601f016020900481019282612106576000855561214d565b82601f1061211f57805160ff191683800117855561214d565b8280016001018555821561214d579182015b8281111561214c578251825591602001919060010190612131565b5b50905061215a919061215e565b5090565b5b8082111561217757600081600090555060010161215f565b5090565b600061218e61218984612d6b565b612d46565b9050828152602081018484840111156121a657600080fd5b6121b1848285612f7d565b509392505050565b6000813590506121c8816137a1565b92915050565b6000813590506121dd816137b8565b92915050565b6000813590506121f2816137cf565b92915050565b600081519050612207816137cf565b92915050565b600082601f83011261221e57600080fd5b813561222e84826020860161217b565b91505092915050565b600081359050612246816137e6565b92915050565b60006020828403121561225e57600080fd5b600061226c848285016121b9565b91505092915050565b6000806040838503121561228857600080fd5b6000612296858286016121b9565b92505060206122a7858286016121b9565b9150509250929050565b6000806000606084860312156122c657600080fd5b60006122d4868287016121b9565b93505060206122e5868287016121b9565b92505060406122f686828701612237565b9150509250925092565b6000806000806080858703121561231657600080fd5b6000612324878288016121b9565b9450506020612335878288016121b9565b935050604061234687828801612237565b925050606085013567ffffffffffffffff81111561236357600080fd5b61236f8782880161220d565b91505092959194509250565b6000806040838503121561238e57600080fd5b600061239c858286016121b9565b92505060206123ad858286016121ce565b9150509250929050565b600080604083850312156123ca57600080fd5b60006123d8858286016121b9565b92505060206123e985828601612237565b9150509250929050565b60006020828403121561240557600080fd5b6000612413848285016121e3565b91505092915050565b60006020828403121561242e57600080fd5b600061243c848285016121f8565b91505092915050565b60006020828403121561245757600080fd5b600061246584828501612237565b91505092915050565b61247781612f09565b82525050565b61248681612f1b565b82525050565b600061249782612db1565b6124a18185612dc7565b93506124b1818560208601612f8c565b6124ba81613158565b840191505092915050565b60006124d082612dbc565b6124da8185612dd8565b93506124ea818560208601612f8c565b6124f381613158565b840191505092915050565b600061250982612dbc565b6125138185612de9565b9350612523818560208601612f8c565b80840191505092915050565b6000815461253c81612fbf565b6125468186612de9565b945060018216600081146125615760018114612572576125a5565b60ff198316865281860193506125a5565b61257b85612d9c565b60005b8381101561259d5781548189015260018201915060208101905061257e565b838801955050505b50505092915050565b60006125bb603283612dd8565b91506125c682613169565b604082019050919050565b60006125de602583612dd8565b91506125e9826131b8565b604082019050919050565b6000612601601c83612dd8565b915061260c82613207565b602082019050919050565b6000612624600a83612de9565b915061262f82613230565b600a82019050919050565b6000612647602483612dd8565b915061265282613259565b604082019050919050565b600061266a601983612dd8565b9150612675826132a8565b602082019050919050565b600061268d600b83612de9565b9150612698826132d1565b600b82019050919050565b60006126b0602c83612dd8565b91506126bb826132fa565b604082019050919050565b60006126d3600d83612de9565b91506126de82613349565b600d82019050919050565b60006126f6603883612dd8565b915061270182613372565b604082019050919050565b6000612719602a83612dd8565b9150612724826133c1565b604082019050919050565b600061273c602983612dd8565b915061274782613410565b604082019050919050565b600061275f602e83612dd8565b915061276a8261345f565b604082019050919050565b6000612782600283612de9565b915061278d826134ae565b600282019050919050565b60006127a5602083612dd8565b91506127b0826134d7565b602082019050919050565b60006127c8603183612dd8565b91506127d382613500565b604082019050919050565b60006127eb602c83612dd8565b91506127f68261354f565b604082019050919050565b600061280e602f83612dd8565b91506128198261359e565b604082019050919050565b6000612831600a83612de9565b915061283c826135ed565b600a82019050919050565b6000612854606783612de9565b915061285f82613616565b606782019050919050565b6000612877602183612dd8565b9150612882826136b1565b604082019050919050565b600061289a600a83612de9565b91506128a582613700565b600a82019050919050565b60006128bd601d83612de9565b91506128c882613729565b601d82019050919050565b60006128e0603183612dd8565b91506128eb82613752565b604082019050919050565b6128ff81612f73565b82525050565b600061291182846124fe565b915081905092915050565b600061292882856124fe565b915061293482846124fe565b91508190509392505050565b600061294c82866124fe565b915061295882856124fe565b915061296482846124fe565b9150819050949350505050565b600061297d828761252f565b915061298982866124fe565b915061299582856124fe565b91506129a182846124fe565b91506129ac826126c6565b915081905095945050505050565b60006129c582612617565b91506129d182846124fe565b915081905092915050565b60006129e782612680565b91506129f382846124fe565b915081905092915050565b6000612a0982612824565b9150612a1582856124fe565b9150612a2082612847565b9150612a2c82846124fe565b9150612a3782612775565b91508190509392505050565b6000612a4e8261288d565b9150612a5a82846124fe565b915081905092915050565b6000612a70826128b0565b9150612a7c82846124fe565b915081905092915050565b6000602082019050612a9c600083018461246e565b92915050565b6000608082019050612ab7600083018761246e565b612ac4602083018661246e565b612ad160408301856128f6565b8181036060830152612ae3818461248c565b905095945050505050565b6000602082019050612b03600083018461247d565b92915050565b60006020820190508181036000830152612b2381846124c5565b905092915050565b60006020820190508181036000830152612b44816125ae565b9050919050565b60006020820190508181036000830152612b64816125d1565b9050919050565b60006020820190508181036000830152612b84816125f4565b9050919050565b60006020820190508181036000830152612ba48161263a565b9050919050565b60006020820190508181036000830152612bc48161265d565b9050919050565b60006020820190508181036000830152612be4816126a3565b9050919050565b60006020820190508181036000830152612c04816126e9565b9050919050565b60006020820190508181036000830152612c248161270c565b9050919050565b60006020820190508181036000830152612c448161272f565b9050919050565b60006020820190508181036000830152612c6481612752565b9050919050565b60006020820190508181036000830152612c8481612798565b9050919050565b60006020820190508181036000830152612ca4816127bb565b9050919050565b60006020820190508181036000830152612cc4816127de565b9050919050565b60006020820190508181036000830152612ce481612801565b9050919050565b60006020820190508181036000830152612d048161286a565b9050919050565b60006020820190508181036000830152612d24816128d3565b9050919050565b6000602082019050612d4060008301846128f6565b92915050565b6000612d50612d61565b9050612d5c8282612ff1565b919050565b6000604051905090565b600067ffffffffffffffff821115612d8657612d85613129565b5b612d8f82613158565b9050602081019050919050565b60008190508160005260206000209050919050565b600081519050919050565b600081519050919050565b600082825260208201905092915050565b600082825260208201905092915050565b600081905092915050565b6000612dff82612f73565b9150612e0a83612f73565b9250827fffffffffffffffffffffffffffffffffffffffffffffffffffffffffffffffff03821115612e3f57612e3e61309c565b5b828201905092915050565b6000612e5582612f73565b9150612e6083612f73565b925082612e7057612e6f6130cb565b5b828204905092915050565b6000612e8682612f73565b9150612e9183612f73565b9250817fffffffffffffffffffffffffffffffffffffffffffffffffffffffffffffffff0483118215151615612eca57612ec961309c565b5b828202905092915050565b6000612ee082612f73565b9150612eeb83612f73565b925082821015612efe57612efd61309c565b5b828203905092915050565b6000612f1482612f53565b9050919050565b60008115159050919050565b60007fffffffff0000000000000000000000000000000000000000000000000000000082169050919050565b600073ffffffffffffffffffffffffffffffffffffffff82169050919050565b6000819050919050565b82818337600083830152505050565b60005b83811015612faa578082015181840152602081019050612f8f565b83811115612fb9576000848401525b50505050565b60006002820490506001821680612fd757607f821691505b60208210811415612feb57612fea6130fa565b5b50919050565b612ffa82613158565b810181811067ffffffffffffffff8211171561301957613018613129565b5b80604052505050565b600061302d82612f73565b91507fffffffffffffffffffffffffffffffffffffffffffffffffffffffffffffffff8214156130605761305f61309c565b5b600182019050919050565b600061307682612f73565b915061308183612f73565b925082613091576130906130cb565b5b828206905092915050565b7f4e487b7100000000000000000000000000000000000000000000000000000000600052601160045260246000fd5b7f4e487b7100000000000000000000000000000000000000000000000000000000600052601260045260246000fd5b7f4e487b7100000000000000000000000000000000000000000000000000000000600052602260045260246000fd5b7f4e487b7100000000000000000000000000000000000000000000000000000000600052604160045260246000fd5b6000601f19601f8301169050919050565b7f4552433732313a207472616e7366657220746f206e6f6e20455243373231526560008201527f63656976657220696d706c656d656e7465720000000000000000000000000000602082015250565b7f4552433732313a207472616e736665722066726f6d20696e636f72726563742060008201527f6f776e6572000000000000000000000000000000000000000000000000000000602082015250565b7f4552433732313a20746f6b656e20616c7265616479206d696e74656400000000600082015250565b7f54484952445f574f524400000000000000000000000000000000000000000000600082015250565b7f4552433732313a207472616e7366657220746f20746865207a65726f2061646460008201527f7265737300000000000000000000000000000000000000000000000000000000602082015250565b7f4552433732313a20617070726f766520746f2063616c6c657200000000000000600082015250565b7f5345434f4e445f574f5244000000000000000000000000000000000000000000600082015250565b7f4552433732313a206f70657261746f7220717565727920666f72206e6f6e657860008201527f697374656e7420746f6b656e0000000000000000000000000000000000000000602082015250565b7f3c2f746578743e3c2f7376673e00000000000000000000000000000000000000600082015250565b7f4552433732313a20617070726f76652063616c6c6572206973206e6f74206f7760008201527f6e6572206e6f7220617070726f76656420666f7220616c6c0000000000000000602082015250565b7f4552433732313a2062616c616e636520717565727920666f7220746865207a6560008201527f726f206164647265737300000000000000000000000000000000000000000000602082015250565b7f4552433732313a206f776e657220717565727920666f72206e6f6e657869737460008201527f656e7420746f6b656e0000000000000000000000000000000000000000000000602082015250565b7f45524337323155524953746f726167653a2055524920736574206f66206e6f6e60008201527f6578697374656e7420746f6b656e000000000000000000000000000000000000602082015250565b7f227d000000000000000000000000000000000000000000000000000000000000600082015250565b7f4552433732313a206d696e7420746f20746865207a65726f2061646472657373600082015250565b7f45524337323155524953746f726167653a2055524920717565727920666f722060008201527f6e6f6e6578697374656e7420746f6b656e000000000000000000000000000000602082015250565b7f4552433732313a20617070726f76656420717565727920666f72206e6f6e657860008201527f697374656e7420746f6b656e0000000000000000000000000000000000000000602082015250565b7f4552433732314d657461646174613a2055524920717565727920666f72206e6f60008201527f6e6578697374656e7420746f6b656e0000000000000000000000000000000000602082015250565b7f7b226e616d65223a202200000000000000000000000000000000000000000000600082015250565b7f222c20226465736372697074696f6e223a20224120686967686c79206163636c60008201527f61696d656420636f6c6c656374696f6e206f6620466f6f7442616c6c4e46542e60208201527f222c2022696d616765223a2022646174613a696d6167652f7376672b786d6c3b60408201527f6261736536342c00000000000000000000000000000000000000000000000000606082015250565b7f4552433732313a20617070726f76616c20746f2063757272656e74206f776e6560008201527f7200000000000000000000000000000000000000000000000000000000000000602082015250565b7f46495253545f574f524400000000000000000000000000000000000000000000600082015250565b7f646174613a6170706c69636174696f6e2f6a736f6e3b6261736536342c000000600082015250565b7f4552433732313a207472616e736665722063616c6c6572206973206e6f74206f60008201527f776e6572206e6f7220617070726f766564000000000000000000000000000000602082015250565b6137aa81612f09565b81146137b557600080fd5b50565b6137c181612f1b565b81146137cc57600080fd5b50565b6137d881612f27565b81146137e357600080fd5b50565b6137ef81612f73565b81146137fa57600080fd5b5056fe4142434445464748494a4b4c4d4e4f505152535455565758595a6162636465666768696a6b6c6d6e6f707172737475767778797a303132333435363738392b2fa26469706673582212208357e105b3d9386082297c8315ebce6b1a6407f6eb07752b919d7a13bc7b426764736f6c634300080100333c73766720786d6c6e733d27687474703a2f2f7777772e77332e6f72672f323030302f73766727207072657365727665417370656374526174696f3d27784d696e594d696e206d656574272076696577426f783d273020302033353020333530273e3c7374796c653e2e62617365207b2066696c6c3a2077686974653b20666f6e742d66616d696c793a2073657269663b20666f6e742d73697a653a20323470783b207d3c2f7374796c653e3c726563742077696474683d273130302527206865696768743d2731303025272066696c6c3d27626c61636b27202f3e3c7465787420783d273530252720793d273530252720636c6173733d27626173652720646f6d696e616e742d626173656c696e653d276d6964646c652720746578742d616e63686f723d276d6964646c65273e",
  "linkReferences": {},
  "deployedLinkReferences": {}
}